{
  "_format": "hh-sol-artifact-1",
  "contractName": "TransferFund",
  "sourceName": "contracts/transferFund.sol",
  "abi": [
    {
      "inputs": [],
      "name": "GetTransactions",
      "outputs": [
        {
          "components": [
            {
              "internalType": "uint256",
              "name": "BlockNum",
              "type": "uint256"
            },
            {
              "internalType": "address",
              "name": "SenderAddress",
              "type": "address"
            },
            {
              "internalType": "address",
              "name": "RecieverAddress",
              "type": "address"
            },
            {
              "internalType": "uint256",
              "name": "EthAmount",
              "type": "uint256"
            },
            {
              "internalType": "uint256",
              "name": "TimeStamp",
              "type": "uint256"
            },
            {
              "internalType": "string",
              "name": "TxHash",
              "type": "string"
            }
          ],
          "internalType": "struct TransferFund.TransactionRecord[]",
          "name": "",
          "type": "tuple[]"
        }
      ],
      "stateMutability": "view",
      "type": "function"
    },
    {
      "inputs": [
        {
          "internalType": "address",
          "name": "_from",
          "type": "address"
        },
        {
          "internalType": "address",
          "name": "_to",
          "type": "address"
        },
        {
          "internalType": "uint256",
          "name": "amount",
          "type": "uint256"
        },
        {
          "internalType": "string",
          "name": "_txHash",
          "type": "string"
        }
      ],
      "name": "NewTransaction",
      "outputs": [],
      "stateMutability": "nonpayable",
      "type": "function"
    }
  ],
  "bytecode": "0x60806040526000805534801561001457600080fd5b50610b89806100246000396000f3fe608060405234801561001057600080fd5b50600436106100365760003560e01c80638f9b9aec1461003b57806392f47b0314610057575b600080fd5b61005560048036038101906100509190610585565b610075565b005b61005f6101dc565b60405161006c91906107f0565b60405180910390f35b60016040518060c001604052804381526020018673ffffffffffffffffffffffffffffffffffffffff1681526020018573ffffffffffffffffffffffffffffffffffffffff1681526020018481526020014281526020018381525090806001815401808255809150506001900390600052602060002090600602016000909190919091506000820151816000015560208201518160010160006101000a81548173ffffffffffffffffffffffffffffffffffffffff021916908373ffffffffffffffffffffffffffffffffffffffff16021790555060408201518160020160006101000a81548173ffffffffffffffffffffffffffffffffffffffff021916908373ffffffffffffffffffffffffffffffffffffffff160217905550606082015181600301556080820151816004015560a08201518160050190816101ba9190610a1e565b50505060016000808282546101cf9190610b1f565b9250508190555050505050565b60606001805480602002602001604051908101604052809291908181526020016000905b8282101561038e57838290600052602060002090600602016040518060c0016040529081600082015481526020016001820160009054906101000a900473ffffffffffffffffffffffffffffffffffffffff1673ffffffffffffffffffffffffffffffffffffffff1673ffffffffffffffffffffffffffffffffffffffff1681526020016002820160009054906101000a900473ffffffffffffffffffffffffffffffffffffffff1673ffffffffffffffffffffffffffffffffffffffff1673ffffffffffffffffffffffffffffffffffffffff16815260200160038201548152602001600482015481526020016005820180546102fd90610841565b80601f016020809104026020016040519081016040528092919081815260200182805461032990610841565b80156103765780601f1061034b57610100808354040283529160200191610376565b820191906000526020600020905b81548152906001019060200180831161035957829003601f168201915b50505050508152505081526020019060010190610200565b50505050905090565b6000604051905090565b600080fd5b600080fd5b600073ffffffffffffffffffffffffffffffffffffffff82169050919050565b60006103d6826103ab565b9050919050565b6103e6816103cb565b81146103f157600080fd5b50565b600081359050610403816103dd565b92915050565b6000819050919050565b61041c81610409565b811461042757600080fd5b50565b60008135905061043981610413565b92915050565b600080fd5b600080fd5b6000601f19601f8301169050919050565b7f4e487b7100000000000000000000000000000000000000000000000000000000600052604160045260246000fd5b61049282610449565b810181811067ffffffffffffffff821117156104b1576104b061045a565b5b80604052505050565b60006104c4610397565b90506104d08282610489565b919050565b600067ffffffffffffffff8211156104f0576104ef61045a565b5b6104f982610449565b9050602081019050919050565b82818337600083830152505050565b6000610528610523846104d5565b6104ba565b90508281526020810184848401111561054457610543610444565b5b61054f848285610506565b509392505050565b600082601f83011261056c5761056b61043f565b5b813561057c848260208601610515565b91505092915050565b6000806000806080858703121561059f5761059e6103a1565b5b60006105ad878288016103f4565b94505060206105be878288016103f4565b93505060406105cf8782880161042a565b925050606085013567ffffffffffffffff8111156105f0576105ef6103a6565b5b6105fc87828801610557565b91505092959194509250565b600081519050919050565b600082825260208201905092915050565b6000819050602082019050919050565b61063d81610409565b82525050565b61064c816103cb565b82525050565b600081519050919050565b600082825260208201905092915050565b60005b8381101561068c578082015181840152602081019050610671565b60008484015250505050565b60006106a382610652565b6106ad818561065d565b93506106bd81856020860161066e565b6106c681610449565b840191505092915050565b600060c0830160008301516106e96000860182610634565b5060208301516106fc6020860182610643565b50604083015161070f6040860182610643565b5060608301516107226060860182610634565b5060808301516107356080860182610634565b5060a083015184820360a086015261074d8282610698565b9150508091505092915050565b600061076683836106d1565b905092915050565b6000602082019050919050565b600061078682610608565b6107908185610613565b9350836020820285016107a285610624565b8060005b858110156107de57848403895281516107bf858261075a565b94506107ca8361076e565b925060208a019950506001810190506107a6565b50829750879550505050505092915050565b6000602082019050818103600083015261080a818461077b565b905092915050565b7f4e487b7100000000000000000000000000000000000000000000000000000000600052602260045260246000fd5b6000600282049050600182168061085957607f821691505b60208210810361086c5761086b610812565b5b50919050565b60008190508160005260206000209050919050565b60006020601f8301049050919050565b600082821b905092915050565b6000600883026108d47fffffffffffffffffffffffffffffffffffffffffffffffffffffffffffffffff82610897565b6108de8683610897565b95508019841693508086168417925050509392505050565b6000819050919050565b600061091b61091661091184610409565b6108f6565b610409565b9050919050565b6000819050919050565b61093583610900565b61094961094182610922565b8484546108a4565b825550505050565b600090565b61095e610951565b61096981848461092c565b505050565b5b8181101561098d57610982600082610956565b60018101905061096f565b5050565b601f8211156109d2576109a381610872565b6109ac84610887565b810160208510156109bb578190505b6109cf6109c785610887565b83018261096e565b50505b505050565b600082821c905092915050565b60006109f5600019846008026109d7565b1980831691505092915050565b6000610a0e83836109e4565b9150826002028217905092915050565b610a2782610652565b67ffffffffffffffff811115610a4057610a3f61045a565b5b610a4a8254610841565b610a55828285610991565b600060209050601f831160018114610a885760008415610a76578287015190505b610a808582610a02565b865550610ae8565b601f198416610a9686610872565b60005b82811015610abe57848901518255600182019150602085019450602081019050610a99565b86831015610adb5784890151610ad7601f8916826109e4565b8355505b6001600288020188555050505b505050505050565b7f4e487b7100000000000000000000000000000000000000000000000000000000600052601160045260246000fd5b6000610b2a82610409565b9150610b3583610409565b9250828201905080821115610b4d57610b4c610af0565b5b9291505056fea2646970667358221220f98cb908ea95968860ac7418f0dee7fea9bfef30f9d91c74f7711f9629b71b7964736f6c63430008110033",
  "linkReferences": {},
  "deployedLinkReferences": {}
}